:020000040800F2
:1000000000000120AD360008F5360008F53600087E
:10001000F5360008F5360008F53600080000000047
:10002000000000000000000000000000F53600089D
:10003000F536000800000000F5360008FF2400082F
:10004000F5360008F5360008F5360008F5360008E4
:10005000F5360008F5360008912600089B260008B2
:10006000A5260008AF260008B9260008F5360008C6
:10007000F5360008F5360008F5360008F5360008B4
:10008000F5360008F5360008F5360008F5360008A4
:10009000F5360008F5360008F5360008C3260008D6
:1000A000F5360008DD200008F5360008F1200008CC
:1000B00005210008192100082D210008F536000847
:1000C000F5360008F5360008F5360008F536000864
:1000D000F5360008B1350008C9350008E1350008DB
:1000E000D9260008F5360008F5360008F536000870
:1000F0007D210008F536000891210008F53600083A
:10010000F5360008F536000841210008F5360008EC
:10011000F93500081136000855210008692100084A
:10012000F5360008F5360008F5360008F536000803
:1001300000000000000000000000000000000000BF
:1001400000000000000000000000000000000000AF
:10015000000000000000000000000000000000009F
:10016000000000000000000000000000000000008F
:10017000000000000000000000000000000000007F
:10018000000000000000000000000000000000006F
:10019000000000000000000000000000000000005F
:1001A000000000000000000000000000000000004F
:1001B000000000000000000000000000000000003F
:1001C000000000000000000000000000000000002F
:1001D000000000000000000000000000000000001F
:0401E0005FF8E0F1F3
:1001E40010B5054C237833B9044B13B10448AFF36D
:1001F40000800123237010BDA00000200000000037
:10020400B440000808B5034B1BB103490348AFF3DE
:10021400008008BD00000000A4000020B4400008D5
:1002240030B587B000230293039304930593184BCE
:100234001B680BB107B030BD154B01221A60154B7A
:100244005A6942F480725A615B6903F480730193C2
:10025400019B4FF6847302930225039503240594AE
:1002640002A90D4800F0D0FD4CF2337302930395BC
:10027400059402A9094800F0C7FD4FF48053029386
:100284000395059402A9064800F0BEFDD2E700BF1D
:10029400BC0000200010024000180140001401407E
:1002A4000020014000B589B000220192029203921D
:1002B400049205920692079216484FF02043036079
:1002C40003F58273436006238360C26002611023D6
:1002D40043618261C261026242624FF48051816271
:1002E400C262026342638263012101910F21029180
:1002F400039105931123069301A901F051FA00B16A
:10030400FEE7054AD36943F48063D36109B05DF81D
:1003140004FB00BFC00000200000014008B5FFF747
:100324007FFF08BD08B500F04BFB044B1B88044A53
:1003340012880021084600F02BFB08BD04000020B1
:100344000200002000B589B0384B9A6942F040029F
:100354009A619A6902F040020192019A9A6942F004
:1003640010029A619A6902F010020292029A9A6942
:1003740042F080029A619A6902F080020392039A21
:100384009A6942F004029A619A6902F004020492A2
:10039400049A9A6942F008029A619A6902F0080282
:1003A4000592059A9A6942F480729A619A6902F4F4
:1003B40080720692069A9A6942F020029A619B69B9
:1003C40003F020030793079B0121662003F092F9B1
:1003D40001216B2003F08EF90021662003F004FA5A
:1003E40000216B2003F000FAFFF75CFF00F092FAA3
:1003F400032000F02FFA0121262003F07BF90021CD
:10040400262003F0F1F90121192003F073F90021EA
:10041400192003F0E9F90121602003F06BF90021B0
:10042400602003F0E1F909B05DF804FB001002401C
:1004340010B500240BE0E310C4F1FF00801040016C
:1004440040EAC32000B280B2FFF76CFF0434FE2CF4
:10045400F1DDFF240BE0E310C4F1FF008010400144
:1004640040EAC32000B280B2FFF75CFF043C012CD9
:10047400F1DC10BD82B0019002E0019B013B0193CD
:10048400019B002BF9D102B07047000008B528B1D8
:1004940000224021044800F0D7FD08BD012240217C
:1004A400014800F0D1FDF8E7002001404FF0D843A7
:1004B40004221A804FF0DA431A881A88188880B206
:1004C400000280B21B889BB2184348F252539842F0
:1004D40013D04FF0D843D3221A804FF0DA431A884E
:1004E4001A88188880B2000280B21B889BB2184315
:1004F40049F24133984200D0002070472DE9F0477B
:10050400FFF7D4FF704B188049F24133984206D06C
:1005140048F25253984200F0DB80BDE8F0874FF078
:10052400D844CF2323804FF0DA4300221A8081215C
:10053400198030251D80ED2020806420188003263A
:100544001E80122018801980E821218085211980BD
:100554004FF01008A3F8008078211980CB21218066
:1005640039271F802C2119801A80342119800221F7
:100574001980F721218020211980EA2121801A8005
:100584001A80B12121801A804FF01B09A3F8009032
:10059400B62121800A211980A2211980C02020803F
:1005A40035201880C1202080112018804FF0C50C00
:1005B400A4F800C04FF0450CA3F800C0A3F800C095
:1005C4004FF0C70CA4F800C01980F22121801A80D2
:1005D4004FF0260EA4F800E04FF0010CA3F800C081
:1005E400E02121800F211980A3F800E04FF0240EB0
:1005F400A3F800E04FF00B0EA3F800E04FF00E0E4E
:10060400A3F800E04FF0090EA3F800E04FF0540AFD
:10061400A3F800A04FF0A80AA3F800A04FF0460AE0
:10062400A3F800A04FF00C0AA3F800A04FF0170A9B
:10063400A3F800A0A3F800E019804FF0070EA3F878
:1006440000E01A804FF0E10AA4F800A01A804FF0ED
:10065400190AA3F800A0A3F800904FF00409A3F826
:100664000090A3F80080A3F800E04FF02A0EA3F84E
:1006740000E04FF04708A3F800801F801E80062684
:100684001E801E801D8038251D8019803621218002
:10069400C8211980A4F800E01A801A801A80EF217A
:1006A40019802B2121801A801A80A3F800C03F22D0
:1006B4001A803A22228055221A8020800348FFF7AC
:1006C400D9FE2923238028E708010020FCBF02006B
:1006D4004FF0D844CF2323804FF0DA4300221A800E
:1006E400C1261E804FF0300EA3F800E0ED212180DA
:1006F4006421198003211980122119808120188016
:10070400E820208085201880102018807820188008
:10071400CB202080392018802C251D801A8034207D
:10072400188002201880F727278020271F80EA27B7
:1007340027801A801A80C027278021271F802680BF
:1007440011271F80C52626804FF02D0CA3F800C06A
:1007540033261E80362626801A803A262680552681
:100764001E80B12626801A804FF01709A3F8009046
:10077400B62626800A261E80A2261E80F6262680FD
:1007840001261E80A3F800E04FF0F20EA4F800E06A
:100794001A804FF0260EA4F800E01E80E026268082
:1007A4004FF0D008A3F800801A8018804FF0070E8D
:1007B400A3F800E00B261E801A261E8031261E8018
:1007C40054261E8040261E8029261E8019801980EA
:1007D4001980A3F80090E1212180A3F800801A80F9
:1007E4001880A3F800E005221A8025221A80A3F8B5
:1007F40000C044221A8045221A801C221A80182123
:100804001980162119801A801D221A802780034816
:10081400FFF730FE268025807FE600BFFCBF020084
:1008240010B50B4C00224FF40061204600F00CFC84
:1008340040F6FF20FFF71EFE01224FF40061204620
:1008440000F002FC40F6FF20FFF714FE10BD00BFCD
:1008540000200140072853D810B42A4B187010F018
:10086400010F39D1284BF0221A80284B4FF4A07283
:100874001A804FF0D84336221A80254B1B8849F240
:100884004132934230D048F25252934233D04FF027
:10089400D8412A230B804FF0DA43002018801880B7
:1008A400194C2288013AC2F307221A802288013A9D
:1008B400D2B21A802B220A8018801880134802882A
:1008C400013AC2F307221A800288013AD2B21A808E
:1008D4002C230B8010BC70470B4B4FF4A0721A8072
:1008E4000A4BF0221A80C4E7400140F008004FF0A0
:1008F400DA431880CBE740014FF0DA431880C6E7AB
:10090400704700BF00000020020000200400002007
:100914000801002008B50120FFF7B8FDFFF780FFAC
:10092400FFF7ECFD024B1878FFF794FF08BD00BFFA
:100934000000002010B54FF0D84E2A24AEF8004035
:10094400040A4FF0DA4CACF80040C4B2ACF80040F2
:100954001044421EC2F30F22ACF8002080B20138CA
:10096400C0B2ACF800002B22AEF800200A0AACF8A2
:100974000020CAB2ACF8002019444B1EC3F30F2365
:10098400ACF8003089B20139C9B2ACF8001010BD1E
:1009940038B514461D46FFF7CDFF05FB04F1074BA0
:1009A40018884FF0D8432C221A80002303E04FF01C
:1009B400DA42108001339942F9D838BD060000208C
:1009C400014B1880704700BF0600002000B597B0A7
:1009D400282200210CA803F019FA00230793089396
:1009E40009930A930B93019302930393049305933E
:1009F400069301220C924FF480330D93109202223D
:100A0400139214934FF4E01315930CA800F046FBD3
:100A140000B1FEE70F2307930221089100230993F5
:100A24004FF480620A920B9307A800F077FD00B19F
:100A3400FEE7102301930023069301A800F024FE8F
:100A440000B1FEE717B05DF804FB704710B504462B
:100A54000E4B18784FF47A73B3FBF0F30C4A10681A
:100A6400B0FBF3F000F0A6F868B90F2C01D901200F
:100A74000AE0002221464FF0FF3000F043F8054B16
:100A84001C60002000E0012010BD00BF0800002011
:100A9400340000200C00002008B5074A136843F016
:100AA40010031360032000F01BF80020FFF7CEFFB3
:100AB400FFF7CBFF002008BD00200240034A116865
:100AC400034B1B780B441360704700BF0C010020DC
:100AD40008000020014B1868704700BF0C0100207B
:100AE400074AD36823F4E0631B041B0C000200F4E0
:100AF400E060034343F0BF6343F40033D3607047C3
:100B040000ED00E000B5194BDB68C3F30223C3F129
:100B1400070CBCF1040F28BF4FF0040C03F1040EC2
:100B2400BEF1060F18D9033B4FF0FF3E0EFA0CFC42
:100B340021EA0C0199400EFA03F322EA0303194354
:100B440000280BDB0901C9B200F1604000F56140E7
:100B540080F800135DF804FB0023E5E700F00F00C4
:100B64000901C9B2024B1954F4E700BF00ED00E0DB
:100B740014ED00E0002807DB00F01F024009012308
:100B84009340024A42F82030704700BF00E100E081
:100B940000280CDB00F01F024009012393402030A1
:100BA400034A42F82030BFF34F8FBFF36F8F704773
:100BB40000E100E00138B0F1807F0BD24FF0E02378
:100BC4005861054AF02182F8231000209861072219
:100BD4001A6170470120704700ED00E0002808DB2F
:100BE40000F01F024009012393406030014A42F89B
:100BF4002030704700E100E0704708B5FFF7FCFFC4
:100C040008BD704758B110B5044643791BB10123A0
:100C14006371002010BD0371FFF7F3FFF7E70120B4
:100C2400704750B110B504460223037101F002FC71
:100C3400002020612071607110BD0120704710B444
:100C44000468236801F01001012202FA01F123EA89
:100C5400010121600271002010BC704790F821301E
:100C6400022B06D004238363002380F82030012064
:100C740070470268136823F00E0313600268136858
:100C840023F001031360036CC16B012202FA03F326
:100C94004B6080F82120002380F8203018467047EC
:100CA40008B590F82130022B03D00423836301207C
:100CB40008BD0268136823F00E031360026813680A
:100CC40023F00103136003684B4A93424ED9783AE8
:100CD400934224D01432934230D0143293422FD012
:100CE400143293422FD0143293422FD014329342B1
:100CF4002FD0143293422FD002F5627293422ED039
:100D0400143293422DD0143293422CD01432934295
:100D140002D04FF4803203E04FF4805200E001220D
:100D2400364B5A60012380F82130002380F82030AC
:100D3400436B002B5ED098470020B9E71022EFE701
:100D44004FF48072ECE74FF48052E9E74FF48032BD
:100D5400E6E74FF48012E3E74FF08072E0E7012208
:100D6400DEE71022DCE74FF48072D9E7244A93428D
:100D740024D01432934225D01432934224D0143216
:100D8400934224D01432934224D01432934224D078
:100D94001432934224D002F56272934223D0143267
:100DA400934222D01432934221D01432934202D07F
:100DB4004FF4803203E04FF4805200E00122114BE3
:100DC4005A60AFE71022FAE74FF48072F7E74FF466
:100DD4008052F4E74FF48032F1E74FF48012EEE7EB
:100DE4004FF08072EBE70122E9E71022E7E74FF4C6
:100DF4008072E4E700205BE78000024000040240C8
:100E0400080002400000024070B582B00024A446ED
:100E1400B0E0874DAA4210D007D9864DAA420CD023
:100E240005F58035AA4208D013E0A5F58015AA423D
:100E340003D005F57025AA4207D18A68002A62D03A
:100E4400012A5BD04361082403E0A5F58015AA427A
:100E5400F3D0BEF1FF0F58D80646BEF1FF0F56D8A7
:100E64004FEA8C0233680F25954023EA050304FA00
:100E740002F2134333604B6813F0805F78D06E4BFB
:100E84009A6942F001029A619B6903F0010301939C
:100E9400019B4FEA9C02951C684B53F825600CF0AB
:100EA40003039D000F23AB4026EA0306644B9842DC
:100EB40033D003F58063984200F0988003F5806393
:100EC400984200F0958003F58063984200F0928088
:100ED40003F58063984200F08F8003F580639842A5
:100EE40019D006231AE0CC68B3E7CC680434B0E721
:100EF400CC680834ADE7CC680C34AAE70361082455
:100F0400A7E70024A5E70424A3E7061DA5E7ACF1A1
:100F140008029200A6E7052300E00023AB40334318
:100F24000232464D45F822304B6813F4803F65D0B9
:100F3400444A136843EA0E0313604B6813F4003FFA
:100F440062D0404A536843EA0E0353604B6813F47B
:100F5400801F5FD03B4A936843EA0E0393604B685B
:100F640013F4001F5CD0374AD36843EA0E03D360FE
:100F74000CF1010C0A6832FA0CF357D0012303FA7E
:100F84000CF302EA030E33EA0202F1D14A68122A90
:100F94003FF63FAF122A3FF65CAF01A555F822F0A9
:100FA4003F0E0008EB0E0008F50E0008070F0008BE
:100FB400570E0008570E0008570E0008570E000879
:100FC400570E0008570E0008570E0008570E000869
:100FD400570E0008570E0008570E0008570E000859
:100FE400570E0008EF0E0008FB0E0008012395E7DA
:100FF400022393E7032391E704238FE7114A13683D
:1010040023EA0E03136098E70E4A536823EA0E039B
:1010140053609BE70B4A936823EA0E0393609EE7B1
:10102400084AD36823EA0E03D360A1E702B070BD77
:1010340000002210000031100010024000000140A6
:1010440000080140000401400AB10161704709042D
:101054000161704708B5054B5B69034200D108BDC7
:10106400024B586101F042FBF9E700BF0004014064
:1010740082B0084B1B68084AA2FB03235B0A00FBEF
:1010840003F3019300BF019B5A1E0192002BF9D177
:1010940002B0704734000020D34D6210002800F0E5
:1010A400F18170B582B00446036813F0010F2CD0AF
:1010B400994B5B6803F00C03042B1DD0964B5B68C3
:1010C40003F00C03082B12D06368B3F5803F41D0C2
:1010D400002B55D103F1804303F504331A6822F43D
:1010E40080321A601A6822F480221A6037E08A4B30
:1010F4005B6813F4803FE7D0874B1B6813F4003F11
:1011040003D06368002B00F0BF81236813F0020F43
:1011140075D0814B5B6813F00C0F5FD07E4B5B681E
:1011240003F00C03082B54D02369002B00F08A80B1
:101134007A4B01221A60FFF7CDFC0546764B1B68FB
:1011440013F0020F75D1FFF7C5FC401B0228F5D937
:1011540003209EE1704A136843F48033136063688C
:1011640043B3FFF7B7FC05466B4B1B6813F4003F12
:10117400CBD1FFF7AFFC401B6428F5D9032088E1ED
:10118400B3F5A02F09D0644B1A6822F480321A6098
:101194001A6822F480221A60E1E703F18043A3F580
:1011A4003C331A6842F480221A601A6842F480328E
:1011B4001A60D4E7FFF78EFC0546574B1B6813F4FF
:1011C400003FA2D0FFF786FC401B6428F5D903201A
:1011D4005FE1514B5B6813F4803FA5D14E4B1B6814
:1011E40013F0020F03D02369012B40F04F814A4AC8
:1011F400136823F0F803616943EAC10313602368A9
:1012040013F0080F33D0A369002B5CD0434B0122A9
:10121400C3F88024FFF75EFC05463F4B5B6A13F07E
:10122400020F21D1FFF756FC401B0228F5D90320F9
:101234002FE1394A136823F0F803616943EAC103D3
:101244001360DCE7354B00221A60FFF743FC0546C8
:10125400314B1B6813F0020FD1D0FFF73BFC401B4E
:101264000228F5D9032014E10120FFF701FF2368C8
:1012740013F0040F00F09680274BDB6913F0805FB6
:1012840034D1254BDA6942F08052DA61DB6903F02C
:1012940080530193019B0125214B1B6813F4807F2C
:1012A40026D0E368012B3DD0002B53D103F18043BA
:1012B40003F504331A6A22F001021A621A6A22F050
:1012C40004021A6233E0154B0022C3F88024FFF7AE
:1012D40001FC0546104B5B6A13F0020FC7D0FFF701
:1012E400F9FB401B0228F5D90320D2E00025D3E7FF
:1012F4000B4A136843F480731360FFF7EBFB064655
:10130400074B1B6813F4807FCBD1FFF7E3FB801BF3
:101314006428F5D90320BCE00010024000004242DA
:10132400007000405F4A136A43F001031362E368EC
:1013340033B3FFF7CFFB06465A4B1B6A13F0020F79
:101344002FD1FFF7C7FB801B41F288339842F3D9B2
:1013540003209EE0052B09D0524B1A6A22F00102A9
:101364001A621A6A22F004021A62E0E74D4B1A6A02
:1013740042F004021A621A6A42F001021A62D6E7C3
:10138400FFF7A8FB0646474B1B6A13F0020F08D071
:10139400FFF7A0FB801B41F288339842F3D9032066
:1013A40077E0E5B9E369002B72D03E4A526802F057
:1013B4000C02082A56D0022B17D03B4B00221A6687
:1013C400FFF788FB0446374B1B6813F0007F47D0B8
:1013D400FFF780FB001B0228F5D9032059E0314AAE
:1013E400D36923F08053D361DCE72F4B00221A66C4
:1013F400FFF770FB05462B4B1B6813F0007F06D0EC
:10140400FFF768FB401B0228F5D9032041E0236A5B
:10141400B3F5803F1AD023494B6823F47413226A2E
:10142400606A024313434B601F4B01221A66FFF7A5
:1014340051FB04461B4B1B6813F0007F0ED1FFF7D2
:1014440049FB001B0228F5D9032022E0154A536802
:1014540023F40033A1680B435360DCE7002018E059
:10146400002016E0012B16D00E4B5B6803F480318C
:10147400226A914211D103F47013626A93420ED12D
:10148400002006E001207047012002E0012000E076
:10149400002002B070BD0120FBE70120F9E7012024
:1014A400F7E700BF001002400000424286B0174B2D
:1014B4000FCB0DF1180C0CE90F0040F20123ADF82D
:1014C4000430134B5B6803F00C02082A02D0114865
:1014D40006B07047C3F3834218326A4412F8100C02
:1014E40013F4803F0DD00A4B5B68C3F340431833B9
:1014F4006B4413F8143C074A02FB00F0B0FBF3F012
:10150400E6E7054B03FB00F0E2E700BFCC40000830
:101514000010024000127A0000093D00002800F08B
:10152400A08070B50D460446524B1B6803F00703B8
:101534008B420BD24F4A136823F007030B4313600B
:10154400136803F007038B4240F08D80236813F087
:10155400020F17D013F0040F04D0474A536843F422
:10156400E0635360236813F0080F04D0424A5368C1
:1015740043F460535360404A536823F0F003A16876
:101584000B435360236813F0010F31D06368012BC0
:1015940020D0022B25D0384A126812F0020F64D0F2
:1015A40035494A6822F0030213434B60FFF792FA6D
:1015B4000646314B5B6803F00C036268B3EB820FA1
:1015C40016D0FFF787FA801B41F288339842F0D98E
:1015D400032045E0284A126812F4003FE0D10120BC
:1015E4003EE0254A126812F0007FD9D1012037E08D
:1015F400204B1B6803F00703AB420AD91D4A13684A
:1016040023F007032B431360136803F00703AB4273
:101614002DD1236813F0040F06D0174A536823F41E
:10162400E063E1680B435360236813F0080F07D0AD
:10163400114A536823F46053216943EAC103536098
:10164400FFF734FF0C4B5B68C3F303130B4AD35C03
:10165400D8400B4B18600B4B1868FFF7F7F90020C4
:1016640070BD012070470120FAE70120F8E701204E
:10167400F6E700BF002002400010024020410008AD
:10168400340000200C00002070B582B004460368CA
:1016940013F0010F36D03F4BDB6913F0805F49D163
:1016A4003C4BDA6942F08052DA61DB6903F0805323
:1016B4000193019B0125384B1B6813F4807F3BD0B9
:1016C400344B1B6A13F4407313D0626802F4407203
:1016D4009A420ED02F4A136A23F440702F490126F0
:1016E400C1F840640026C1F84064106213F0010F91
:1016F40036D1284A136A23F4407361680B4313629A
:10170400002D3ED1236813F0020F06D0214A5368FE
:1017140023F44043A1680B435360236813F0100F74
:1017240034D01C4A536823F4800361690B4353602B
:1017340000202CE00025BEE7174A136843F48073A9
:101744001360FFF7C7F90646134B1B6813F4807F39
:10175400B6D1FFF7BFF9801B6428F5D9032016E042
:10176400FFF7B8F906460B4B1B6A13F0020FC0D102
:10177400FFF7B0F9801B41F288339842F3D9032074
:1017840005E0D36923F08053D361BBE7002002B0A6
:1017940070BD00BF001002400070004000004242D3
:1017A40060B370B50E46154604468369B3F5807F71
:1017B40026D090F84130E3B1214651F8080B00F0EF
:1017C40031FDA2683146206800F060FD236BA268F9
:1017D4002946606800F082FD2268A16852F8213031
:1017E40043F0010342F82130012384F84130002002
:1017F40070BD80F84030FEF791FDDDE701207047B1
:101804000120F5E77047704710B5044603681A696C
:1018140012F0020F11D0DA6812F0020F0DD06FF03F
:1018240002021A610123037703689B6913F0030F13
:1018340070D000F0EEFC0023237723681A6912F0BD
:10184400040F12D0DA6812F0040F0ED06FF0040205
:101854001A610223237723689B6913F4407F5FD0C6
:10186400204600F0D6FC0023237723681A6912F07F
:10187400080F12D0DA6812F0080F0ED06FF00802C9
:101884001A61042323772368DB6913F0030F4ED016
:10189400204600F0BEFC0023237723681A6912F067
:1018A400100F12D0DA6812F0100F0ED06FF0100281
:1018B4001A61082323772368DB6913F4407F3DD042
:1018C400204600F0A6FC0023237723681A6912F04F
:1018D400010F03D0DA6812F0010F36D123681A69B8
:1018E40012F0800F03D0DA6812F0800F34D123682D
:1018F4001A6912F0400F03D0DA6812F0400F32D1A7
:1019040023681A6912F0200F03D0DA6812F0200F4E
:1019140030D110BD00F081FC2046FFF773FF8AE749
:10192400204600F07AFC2046FFF76CFF9BE7204638
:1019340000F073FC2046FFF765FFACE7204600F09B
:101944006CFC2046FFF75EFFBDE76FF001021A61F1
:10195400204600F039FCC1E76FF080021A6120468E
:1019640000F089F8C3E76FF040021A612046FFF7E0
:101974004AFFC5E76FF020021A61204600F07AF8AA
:10198400C7E700000368244A904212D002F50062BF
:1019940090420ED0B0F1804F0BD0A2F59832904215
:1019A40007D002F58062904203D002F58062904233
:1019B40003D123F070034A681343174A904212D0AC
:1019C40002F5006290420ED0B0F1804F0BD0A2F528
:1019D4009832904207D002F58062904203D002F51B
:1019E4008062904203D123F44073CA68134323F006
:1019F40080034A69134303608B68C3620B68836284
:101A0400054B984203D003F50063984201D10B695A
:101A14000363012343617047002C014040B310B5B8
:101A2400044690F83D30F3B1022384F83D3021465A
:101A340051F8040BFFF7A6FF012384F8463084F81D
:101A44003E3084F83F3084F8403084F8413084F8E4
:101A5400423084F8433084F8443084F8453084F8C4
:101A64003D30002010BD80F83C3001F0BBFCDBE7CA
:101A740001207047704770470268D36823F490735D
:101A8400D3600268536923F001035361036B012B94
:101A940005D0202380F83E3000230363704702689A
:101AA400D36823F01003D360F3E790F83D30DBB242
:101AB400212B01D0022070478368B3F5805F17D0D3
:101AC400036A5A1C02621A7803685A60C38C9BB278
:101AD400013B9BB2C3844BB90268D36823F08003F3
:101AE400D3600268D36843F04003D360002070479A
:101AF4000369002BE4D1036A1B880268C3F308035B
:101B04005360036A02330362E0E790F83D30DBB2CE
:101B1400202B19D1D1B1DAB190F83C30012B19D076
:101B2400012380F83C3001628284C2840023036470
:101B3400212280F83D2080F83C300168CA6842F0D8
:101B44008002CA601846704702207047012070471F
:101B5400012070470220704708B50168CA6822F066
:101B64004002CA60202280F83D2001F0D4FC00200D
:101B740008BD08B5406A0023C385C38401F0D2FCC4
:101B840008BD704790F83E30DBB2222B60D18368E9
:101B9400B3F5805F46D0826AB3F5805F04D0002B32
:101BA4004DD10369002B4AD103685B681370836AC3
:101BB40001338362C38D9BB2013B9BB2C385002B6F
:101BC40048D100B583B00268D36823F02003D36002
:101BD4000268D36823F48073D3600268536923F0E6
:101BE40001035361202380F83E30036B012B2CD179
:101BF400002303630268D36823F01003D3600368EF
:101C04001A6812F0100F06D0002201921A6801928D
:101C14005B680193019B818DFFF7B3FF002003B044
:101C24005DF804FB0269002AB5D1826A03685B6827
:101C3400C3F308031380836A02338362BAE7036839
:101C44005B6803F07F031370B1E701F05DFCE5E727
:101C5400022070470020704730B583B00446026804
:101C64001368D068516913F00F0505D113F0200FE4
:101C740002D010F0200F19D12DB111F0010119D1AA
:101C840010F4907F16D1216B012975D013F0800FC9
:101C940003D010F0800F40F0D78013F0400F03D032
:101CA40010F0400F40F0D48003B030BD2046FFF761
:101CB40069FFF9E713F0010F06D010F4807F03D019
:101CC400226C42F00102226413F0040F04D019B113
:101CD400226C42F00202226413F0020F04D019B104
:101CE400226C42F00402226413F0080F07D010F0B3
:101CF400200F00D119B1226C42F008022264226C38
:101D0400002AD1D013F0200F02D010F0200F21D1DF
:101D140023685B6903F04003226C12F0080F00D1C2
:101D240023B32046FFF7A8FE23685A6912F0400F38
:101D340018D05A6922F040025A61A36B73B1464A23
:101D44005A63A06BFEF7ACFF0028ADD0A06B436BC9
:101D54009847A9E72046FFF715FFD9E7204601F089
:101D6400E1FBA1E7204601F0DDFB9DE7204601F001
:101D7400D9FB0023236497E713F0100F86D010F0EB
:101D8400100F83D0002301931368019353680193C8
:101D9400019B536913F0400F32D0A16B0B685B6851
:101DA4009BB2002B80D0A08D98427FF67DAFE38557
:101DB4008B69202B08D1A18DE38D9BB2C91A89B2FE
:101DC4002046FFF7DEFE6FE7D36823F48073D36009
:101DD4002268536923F0010353612268536923F095
:101DE40040035361202384F83E3000232363226898
:101DF400D36823F01003D360A06BFEF72FFFDAE75C
:101E0400A18DE38D9BB2C91A89B2E38D9BB2002BDD
:101E14003FF44AAF00293FF447AFD36823F49073EB
:101E2400D3602268536923F001035361202384F8AB
:101E34003E30002323632268D36823F01003D36069
:101E44002046FFF79EFE2FE72046FFF72EFE2BE7E6
:101E54002046FFF781FE27E7771B000890F83C3007
:101E6400012B14D0012380F83C30242380F83D302A
:101E74000268D36823F00C0343F00803D3602023E3
:101E840080F83D30002380F83C301846704702202B
:101E9400704790F83C30012B14D0012380F83C307B
:101EA400242380F83D300268D36823F00C0343F008
:101EB4000403D360202380F83D30002380F83C30B5
:101EC400184670470220704790F83D3090F83E0065
:101ED40018437047034681628285C28500201864D6
:101EE400222283F83E2083F83C001968CA6842F431
:101EF4008072CA6019684A6942F001024A611A682C
:101F0400D36843F02003D360704708B590F83E309F
:101F1400DBB2202B0DD171B17AB190F83C30012B9A
:101F24000DD0012380F83C3000230363FFF7D2FF78
:101F340000E0022008BD0120FCE70120FAE70220AE
:101F4400F8E700000346154A904217D04FF6FF7099
:101F5400B3F1804F14D0124A934213D0114A9342E2
:101F640012D0114A934211D0104A934210D0104A11
:101F740093420FD00F4A93420ED070470020E7E7F8
:101F84000120E8E70220E9E70320EAE70420EBE781
:101F94000520ECE70620EDE70720EEE7002C0140E2
:101FA4000004004000080040000C00400010004005
:101FB400001400400034014070B50546064656F84A
:101FC400100FFFF7BFFF0446304601F031F900233C
:101FD4000A4A42F82430EB6015F160060CD005F192
:101FE400B004A64208D0103CA368002BF9D0032209
:101FF400214620469847F4E7284670BD100100208A
:10200400F8B504460D460846FFF79CFF4FF6FF73EC
:10201400984202D023690BB1FEE7FEE704F10C03FA
:10202400224A42F820302561002584F82C5025638B
:102034006563A563E56325646564A56484F84C5011
:1020440084F84D50E4600E23A365E56504F11007A0
:10205400384601F05BF800E00135042D0DDCAE1DBF
:1020640004EB0616B368002BF6D003223146304643
:1020740098470023B360F360EEE70023032B06DCEC
:102084000022E25404EB43018A800133F6E7002383
:1020940063614FF6FF72E261A3612362636280238E
:1020A400A3623846FFF7BAFCF8BD00BF1001002058
:1020B40038B5054600F16002042303E0002494606F
:1020C4001032013B002BF9DA00232B612846FFF77D
:1020D40097FF284638BD000008B5034B186810B1B7
:1020E4000430FFF791FB08BD1001002008B5034B35
:1020F400186810B10430FFF787FB08BD10010020F9
:1021040008B5034B586810B10430FFF77DFB08BDD8
:102114001001002008B5034B986810B10430FFF794
:1021240073FB08BD1001002008B5034BD86810B13B
:102134000430FFF769FB08BD1001002008B5034B0C
:10214400186910B10430FFF75FFB08BD10010020CF
:1021540008B5034B586910B10430FFF755FB08BDAF
:102164001001002008B5034B986910B10430FFF743
:102174004BFB08BD1001002008B5034BD86910B112
:102184000430FFF741FB08BD1001002008B5034BE4
:10219400D86910B10430FFF737FB08BD10010020E7
:1021A40008B5836813B1C368984708BD01F07CFF84
:1021B40048B108B500F0A8FF0068836E13B1603021
:1021C400FFF7EEFF08BDFEE708B5FFF7F1FF08BD16
:1021D40058B110B50246037F013B072B14D8DFE842
:1021E40003F00516130713131314FEE7012400E08C
:1021F4000324104600F088FF0068A31D00EB0310C1
:1022040083680BB1FFF7CCFF10BD0424F1E702246F
:10221400EFE708B5FFF7DCFF08BD08B5FFF7D8FF07
:1022240008BD000010B40A6850F8223023F00103FE
:1022340040F822308B68082B24D000244A682243BB
:102244001343CA6813430A6913434A691343CA69A7
:1022540013430A6A13434A6A13438A6A1343CA6AD2
:1022640013430A6B13438A6913434A6B1343096884
:1022740050F82140044A22401A4340F8212000200B
:1022840010BC70474024D9E78000F0FF00B501324C
:1022940050F8223003F0404C0B68D1F804E043EAD4
:1022A4000E13D1F808E043EA0E23D1F80CE043EA18
:1022B4000E43D1F810E00EF1FF3E43EA0E53D1F87D
:1022C40014E0AEF1020E43EA0E6389690B434CEA53
:1022D400030340F8223000205DF804FBB3F5804F7F
:1022E40005D06FF0704340F822300020704730B4BE
:1022F40050F82230094C1C400B684D6843EA051322
:102304008D6843EA05238D692B43C96843EA014379
:10231400234340F82230002030BC70470000F0CF47
:1023240008B501F055FD08BD08B501F059FD08BD1B
:1023340088B006285AD8DFE800F004111D29354179
:102344004D002B4B9A6942F004029A619B6903F099
:1023540004030193019B274808B07047244B9A69F2
:1023640042F008029A619B6903F008030293029BFE
:102374002148F1E71E4B9A6942F010029A619B6969
:1023840003F010030393039B1C48E5E7184B9A6979
:1023940042F020029A619B6903F020030493049B9A
:1023A4001748D9E7124B9A6942F040029A619B6937
:1023B40003F040030593059B1248CDE70C4B9A6943
:1023C40042F080029A619B6903F080030693069BA6
:1023D4000D48C1E7064B9A6942F480729A619B6981
:1023E40003F480730793079B0848B5E70020B3E71D
:1023F4000010024000080140000C014000100140A0
:102404000014014000180140001C0140002001405C
:1024140008B5074900F04AFEC0F3C430012802D0D1
:10242400022802D0FEE7002000E0102008BD00BF13
:10243400304100080268094B9A4200D0704703F506
:10244400CE331A6942F000521A611A6922F000521E
:102454001A61DA6922F00052DA61EFE70074004091
:1024640010B586B004460A4900F0F8FD019060B149
:102474002046FFF7CDFF014608B1102805D101A879
:10248400FEF7DDFB01A8FEF7CCFB06B010BD00BFD4
:102494003041000870B50546134900F0DFFDFFF731
:1024A40051FD0446114B53F8203063B10F4B53F8E0
:1024B40024301C6834B12046FFF77EFDB02120464D
:1024C400FFF732FF70BD0849284600F0C7FD0646F5
:1024D400B020FFF725FF05463146FFF7E9FD034B22
:1024E40053F824301D60E1E7544100081001002036
:1024F40008B5FEF7EFFA08BD704708B5FEF7DEFA37
:10250400FEF77BFBFFF7F8FF08BD704784B00F4B65
:10251400DA6942F08052DA61DA6902F0805201929B
:10252400019A9A6942F001029A619A6902F00102E1
:102534000292029A5A6942F040025A615B6903F0BE
:1025440040030393039B04B0704700BF0010024094
:102554000D4BD3F8FC3013F0807F06D10A4AD2F831
:10256400FC3043F08073C2F8FC30084B00225A6000
:102574001A6842F001021A6000BF00BF00BF586829
:10258400B0FA80F04009704700ED00E0001000E070
:1025940008B5FFF7BBFFFFF7DBFFFEF77DFAFFF798
:1025A400B4FFFEF713FA0248FEF72CFB08BD00BF88
:1025B4002C0000200346002002E05B080130C0B27A
:1025C400012BFAD17047000010B5012805D018B9C5
:1025D4004FF6FF73994246D010BD4FF6FF739942F0
:1025E400F5D1284B06221A700022DA6007241C75E4
:1025F4001A62082483F828405A63092483F83C406B
:102604009A640A2483F85040DA65172483F86440F6
:102614001A6783F87840C3F8842083F88C40C3F8A1
:10262400982083F8A040C3F8AC2083F8B440C3F8E2
:10263400C020282483F8C840C3F8D42083F8DC40A1
:10264400C3F8E82083F8F040C3F8FC2083F8044181
:10265400C3F8102183F81841C3F8242183F82C41CE
:10266400C3F83821B3E7084C02E003220146984737
:10267400044B9C42B0D0143C201D8368002BF4D141
:10268400F6E700BF300100207002002008B50120E9
:10269400FEF7E0FC08BD08B50220FEF7DBFC08BD30
:1026A40008B50420FEF7D6FC08BD08B50820FEF7DF
:1026B400D1FC08BD08B51020FEF7CCFC08BD10B550
:1026C400202403E0A0B2FEF7C5FC6400B4F5007F4B
:1026D400F8D910BD10B54FF4806403E0A0B2FEF742
:1026E400B9FC6400B4F5004FF8D910BD08B5FFF784
:1026F40061FF00EB8003044800EB8300043083682F
:102704000BB1FFF74DFD08BD3001002008B54FF6B1
:10271400FF710120FFF758FF08BD08B54FF6FF71A0
:102724000020FFF751FF08BDB0F1FF3F07D00B6851
:10273400B3F1FF3F05D0834205D00C31F7E7002009
:102744007047002070470120704700002DE9F041D8
:1027540084B00446C1F30628C0F3031004F00F024A
:10276400A34B53F82260B4F1FF3F00D1FEE70D46BE
:1027740001F00707FFF7DCFD012F08D0032F00F25B
:102784004583DFE817F023004403B1019E03320EB2
:10279400815896FAA6F3ABB1B3FA83F39B004FF0DA
:1027A400030C0CFA03F321EA030196FAA6F35BB1D6
:1027B400B3FA83F39B004FF0030C0CFA03F30B43BF
:1027C4008350DBE72023E9E72023F3E7894B9A6969
:1027D40042F001029A619B6903F001030193019B9A
:1027E40008F1FF38B8F12B0F34D8DFE818F02C00CB
:1027F40036003E0046004E0056005E0066006E0045
:1028040076008000880090009A00A200AA00B4001C
:10281400BE00C600CE00D800E000E800330033005C
:102824003300F000F80007010F0117011F01270111
:102834002F0137013D0145014B015301590161014C
:102844006901710177016C4A536843F0E06343F016
:10285400010353604FF0080CDAE2674A536823F02F
:10286400010343F0E0635360F4E7634A536843F0C1
:10287400E06343F002035360ECE75F4A536823F0DC
:10288400020343F0E0635360E4E75B4A536843F0B8
:10289400E06343F004035360DCE7574A536823F0D2
:1028A400040343F0E0635360D4E7534A536843F0AE
:1028B400E06343F008035360CCE74F4A536823F0C6
:1028C400080343F0E0635360C4E74B4A536843F0A2
:1028D400E06343F030035360BCE7474A536823F096
:1028E400300343F0E06343F010035360B2E7424A1D
:1028F400536823F0300343F0E0635360AAE73E4A91
:10290400536843F0E06343F0C0035360A2E73A4ADC
:10291400536823F0C00343F0E06343F04003536083
:1029240098E7354A536823F0C00343F0E0635360EB
:1029340090E7314A536843F0E06343F440735360D3
:1029440088E72D4A536823F4407343F0E06343F46B
:10295400007353607EE7284A536823F4407343F0BE
:10296400E06343F48073536074E7234A536823F4A9
:10297400407343F0E06353606CE71F4A536843F0CD
:10298400E06343F44063536064E71B4A536823F4F1
:10299400406343F0E06343F4006353605AE7164A2C
:1029A400536823F4406343F0E063536052E7124AF0
:1029B400536843F0E06343F4805353604AE70E4A9C
:1029C400536823F4805343F0E063536042E70A4AB8
:1029D400536843F0E06343F4004353603AE7064A24
:1029E400536823F4004343F0E063536032E700BFCD
:1029F400E04000080010024000000140A04A536873
:102A040043F0E06343F48033536023E79C4A536804
:102A140023F4803343F0E06353601BE7984A536820
:102A240043F0E06343F40033536013E7944A53687C
:102A340023F4003343F0E06353600BE7904A536898
:102A440043F0E06343F48023536003E78C4A536804
:102A540023F4802343F0E0635360FBE6884A536821
:102A640043F0E1635360F5E6854A536823F4002399
:102A740043F0E0635360EDE6814A536843F0E26358
:102A84005360E7E67E4A536823F4801343F0E0631F
:102A94005360DFE67A4A536823F0E0635360D9E673
:102AA400774A536823F0E06343F080735360D1E6C0
:102AB400734A536823F0E06343F000735360C9E63C
:102AC4006F4A536823F0E06343F080635360C1E6C8
:102AD4006B4AD36943F48063D361BBE6684AD36924
:102AE40023F48063D361B5E6B8F17F0F02D14FF0D0
:102AF400090C8DE1634B9A6942F001029A619B696A
:102B040003F001030293029B08F1FF38B8F12B0F85
:102B140034D8DFE818F02C0036003E0046004E00A2
:102B240056005E0066006E0076008000880090000B
:102B34009A00A200AA00B900C300CB00D300DD00B4
:102B4400E500ED00330033003300F500FD0005011E
:102B54000D0115011D0125012D0135013B01430125
:102B64004901510157015F0167016F017501444A31
:102B7400536843F0E06343F0010353604FF0090CE2
:102B840046E13F4A536823F0010343F0E063536096
:102B9400F4E73B4A536843F0E06343F002035360B5
:102BA400ECE7374A536823F0020343F0E0635360D1
:102BB400E4E7334A536843F0E06343F004035360AB
:102BC400DCE72F4A536823F0040343F0E0635360C7
:102BD400D4E72B4A536843F0E06343F0080353609F
:102BE400CCE7274A536823F0080343F0E0635360BB
:102BF400C4E7234A536843F0E06343F0300353606F
:102C0400BCE71F4A536823F0300343F0E06343F00A
:102C140010035360B2E71A4A536823F0300343F0B9
:102C2400E0635360AAE7164A536843F0E06343F055
:102C3400C0035360A2E7124A536823F0C00343F071
:102C4400E06343F04003536098E70D4A536823F070
:102C5400C00343F0E063536090E7094A536843F0CC
:102C6400E06343F44073536088E7054A536823F4F0
:102C7400407343F0E06343F4007353607EE700BFA6
:102C84000000014000100240AC4A536823F4407332
:102C940043F0E06343F4807353606FE7A74A5368DB
:102CA40023F4407343F0E063536067E7A34A536837
:102CB40043F0E06343F4406353605FE79F4A536823
:102CC40023F4406343F0E06343F40063536055E747
:102CD4009A4A536823F4406343F0E06353604DE73A
:102CE400964A536843F0E06343F48053536045E7E6
:102CF400924A536823F4805343F0E06353603DE702
:102D04008E4A536843F0E06343F40043536035E76D
:102D14008A4A536823F4004343F0E06353602DE789
:102D2400864A536843F0E06343F48033536025E7F5
:102D3400824A536823F4803343F0E06353601DE711
:102D44007E4A536843F0E06343F40033536015E76D
:102D54007A4A536823F4003343F0E06353600DE789
:102D6400764A536843F0E06343F48023536005E7F5
:102D7400724A536823F4802343F0E0635360FDE612
:102D84006E4A536843F0E1635360F7E66B4A536855
:102D940023F4002343F0E0635360EFE6674A53688B
:102DA40043F0E2635360E9E6644A536823F4801312
:102DB40043F0E0635360E1E6604A536823F0E06364
:102DC4005360DBE65D4A536823F0E06343F08073AD
:102DD4005360D3E6594A536823F0E06343F0007329
:102DE4005360CBE6554A536823F0E06343F08063B5
:102DF4005360C3E6514AD36943F48063D361BDE6AB
:102E04004E4AD36923F48063D361B7E6FEE7BC4638
:102E1400310E425896FAA6F3002B55D0B3FA83F339
:102E24009B004FF00F0E0EFA03F322EA030296FA08
:102E3400A6F3002B4AD0B3FA83F39B000CFA03F3F6
:102E440013434350013F012F42D9C5F30115330EFB
:102E5400C25896FAA6F3002B6BD0B3FA83F39B0007
:102E64000F2101FA03F31A4096FAA6F3002B62D05D
:102E7400B3FA83F39B0022FA03F3012D60D0022DF1
:102E840000F0AC80082B6CD1310E425896FAA6F3B0
:102E9400002B00F0C780B3FA83F39B000F2505FADB
:102EA40003F322EA030296FAA6F3002B00F0BC8097
:102EB400B3FA83F39B00042505FA03F31343435049
:102EC4004FE04FF0000CA3E72023A9E72023B4E749
:102ED40015F0080F1CD0310E425896FAA6F39BB198
:102EE400B3FA83F39B00042707FA03F322EA0302ED
:102EF40096FAA6F353B1B3FA83F39B00042707FAB7
:102F040003F313434350A0E72023EBE72023F4E724
:102F1400370EC25996FAA6F34BB1B3FA83F39B006A
:102F2400042101FA03F322EA0303C3518DE72023AA
:102F3400F5E7202393E720239CE700BF000001402E
:102F4400042B2CD0C268330A22EA162693FAA3F380
:102F5400002B41D0B3FA83F3012202FA03F3334383
:102F6400C360364B9A6942F001029A619B6903F08F
:102F740001030393039BA4F10D03012B56D90F2CDA
:102F840003D0132C01D0142C06D12D4A536823F0FE
:102F9400E06343F00073536004B0BDE8F081310E88
:102FA400425896FAA6F39BB1B3FA83F39B000F251C
:102FB40005FA03F322EA030296FAA6F353B1B3FA2D
:102FC40083F39B00082505FA03F313434350B9E741
:102FD4002023EBE72023F4E72023BDE7042B04D0D0
:102FE400C36823EA1626C660BBE7310E425896FA38
:102FF400A6F39BB1B3FA83F39B000F2505FA03F301
:1030040022EA030296FAA6F353B1B3FA83F39B00C0
:10301400082505FA03F313434350E1E72023EBE7C4
:103024002023F4E7202338E7202343E7044A5368A6
:1030340023F0E06343F080635360A0E70010024094
:103044000000014000E00C310B68B3F1FF3F03D0F6
:103054008342F8D14868704700207047B0F1FF3FC1
:1030640003D008B5FFF7EEFF08BD0020704700E06D
:103074000C314B681BB18342FAD1086870474FF09A
:10308400FF30704718B108B5FFF7F1FF08BD4FF0E6
:10309400FF307047034600E00C310868B0F1FF3F91
:1030A40003D09842F8D1886870477047B0F1FF3F69
:1030B40003D008B5FFF7EEFF08BD70470F4B1A6841
:1030C40042F001021A6059680D4A0A405A601A68AF
:1030D40022F0847222F480321A601A6822F4802268
:1030E4001A605A6822F4FE025A604FF41F029A6072
:1030F400044B4FF000629A60704700BF001002401A
:103104000000FFF800ED00E00438704788B0026862
:10311400404B9A421DD00368B3F1804F25D002681A
:103124003D4B9A422DD002683C4B9A4235D00268FE
:103134003B4B9A423DD002683A4B9A4245D00268D2
:10314400394B9A424DD00268384B9A4255D008B058
:10315400704703F564439A6942F400629A619B697B
:1031640003F400630093009BD5E703F50433DA69A5
:1031740042F00102DA61DB6903F001030193019B70
:10318400CDE703F50333DA6942F00202DA61DB6961
:1031940003F002030293029BC5E703F50233DA69E5
:1031A40042F00402DA61DB6903F004030393039B36
:1031B400BDE703F50133DA6942F00802DA61DB693D
:1031C40003F008030493049BB5E703F50033DA69BD
:1031D40042F01002DA61DB6903F010030593059BEA
:1031E400ADE703F5FE33DA6942F02002DA61DB6908
:1031F40003F020030693069BA5E703F55C439A6955
:1032040042F400529A619B6903F400530793079BAD
:103214009DE700BF002C014000040040000800406E
:10322400000C004000100040001400400034014035
:103234000268284B9A421CD00368B3F1804F1ED019
:103244000268254B9A4220D00268244B9A4222D02D
:103254000268234B9A4224D00268224B9A4226D019
:103264000268214B9A4228D00268204B9A422AD005
:1032740070471F4A936923F400639361DCE71C4A97
:10328400D36923F00103D361DAE7194AD36923F040
:103294000203D361D8E7164AD36923F00403D36148
:1032A400D6E7134AD36923F00803D361D4E7104A5D
:1032B400D36923F01003D361D2E70D4AD36923F015
:1032C4002003D361D0E70A4A936923F4005393613E
:1032D400CEE700BF002C014000040040000800407D
:1032E400000C004000100040001400400034014075
:1032F40000100240B0F1FF3F27D0194B984227D06D
:1033040014D8A3F50063984224D004D9154B9842ED
:103314000BD132207047B0F1804F1DD0A3F58063EC
:10332400984201D11D207047FFE7FEE70E4B9842FB
:1033340014D003F50063984201D12C207047A3F503
:1033440090339842F1D1372070476FF00D007047E9
:10335400362070471E2070471C2070471920704784
:1033640000100040000C0040002C0140B0F1FF3F71
:1033740027D0194B984227D014D8A3F5006398425C
:1033840024D004D9154B98420BD132207047B0F1A8
:10339400804F1DD0A3F58063984201D11D20704752
:1033A400FFE7FEE70E4B984214D003F50063984202
:1033B40001D12E207047A3F590339842F1D13720E4
:1033C40070476FF00D007047362070471E2070471D
:1033D4001C2070471B20704700100040000C004068
:1033E400002C0140F8B50446FFF78EFE0546204642
:1033F400FFF78CFE2068FFF77DFF2A6DE96CFDF76F
:1034040081FB2068FFF776FFFDF7B4FB2768384699
:10341400FFF7ACFF06463846FFF76CFF864200D143
:10342400F8BD2A6DE96C3046FDF76CFB2068FFF7A8
:103434009DFFFDF79FFBF3E70438704708B590F84C
:103444006120064B53F82200FEF73EFD00F02200F7
:10345400222814BF0020012008BD00BF70020020F4
:1034640008B590F86120064B53F82200FEF72CFDB6
:1034740000F02100212814BF0020012008BD00BF56
:1034840070020020C8B138B515460446C16490F9ED
:103494006000FDF77DFB94F86100A16EB4F8723012
:1034A4009BB2AAB21944054B53F82000FEF72DFB3A
:1034B40094F96000FDF75EFB38BD70477002002090
:1034C40068B108B5426DB2F1FF3F00D008BD90F875
:1034D4006120034B53F82200FEF7C0FCF6E7704767
:1034E4007002002068B108B5426DB2F1FF3F00D010
:1034F40008BD90F86120034B53F82200FEF7C9FC85
:10350400F6E770477002002008B5FFF795FF08B191
:10351400826C904708BD08B5FFF78EFF08B1C26CF6
:10352400904708BD30B585B0044603681A6812F0A8
:10353400010F10D0002200921A6800925B68009379
:10354400009B2046FFF778FF054610B1FFF776FF92
:1035540028B305B030BD1A6812F0020F07D000225C
:1035640001921A6801925B680193019BE9E71A686A
:1035740012F0040F07D0002202921A6802925B68CC
:103584000293029BDDE71A6812F0080FD9D00022DB
:1035940003921A6803925B680393039BD1E70122A9
:1035A40005F162012046FEF7B0FCD2E708B52520FC
:1035B400FDF714FB024B1868FEF74EFB08BD00BF75
:1035C4007002002008B52620FDF708FB024B58685E
:1035D40008B1FEF741FB08BD7002002008B52720A2
:1035E400FDF7FCFA024B986808B1FEF735FB08BDFD
:1035F4007002002008B53420FDF7F0FA024BD868B9
:10360400FEF72AFB08BD00BF7002002008B5352074
:10361400FDF7E4FA024B1869FEF71EFB08BD00BF74
:103624007002002003460D4A10680344EFF3088239
:10363400934207D80A4A0B49521A934208D2074ABE
:1036440013607047084B0C221A604FF0FF3070472C
:10365400054B0C221A604FF0FF30704738000020F1
:103664000000012000040000BC030020FEE700006D
:10367400024B16221A604FF0FF307047BC03002043
:103684000120704708B50320FDF72AFA00F0FCF882
:1036940008BD08B5AFF30080FCF754FEFCF7C8FE84
:1036A40000F0E2F8FAE700000C480D490D4A002347
:1036B40002E0D458C4500433C4188C42F9D30A4AE3
:1036C4000A4C002301E013600432A242FBD3FFF74B
:1036D400F5FC00F059FBFFF7DCFF70470000002009
:1036E400A00000207C480008A0000020C4030020A3
:1036F400FEE70000F8B50D46C3B26F2B1AD8354A61
:1037040052F8234000F4E0600443B4F1FF3F15D0C5
:10371400C4F30316304B53F8263004F00F07FB4074
:1037240013F0010F19D1052D52D8DFE805F0334706
:10373400383D424C00F0C002C02A00D0F8BDD42B62
:10374400FCD800F03F02254B53F82220214B53F8BC
:10375400224000F4E0600443D7E721492046FEF705
:10376400E3FF68B12046FEF77BFE1B4951F8263083
:10377400012202FA07F723EA070341F82630D2E7C9
:1037840018492046FEF7D0FF0028EED02046FEF769
:1037940081FEEAE700212046FEF7D8FFCEE710219C
:1037A4002046FEF7D3FFC9E720212046FEF7CEFFCF
:1037B400C4E703212046FEF7C9FFBFE701212046E5
:1037C400FEF7C4FFBAE709212046FEF7BFFFB5E7BD
:1037D400FEE700BFD44500088402002080450008AD
:1037E4003041000854410008C3B26F2B16D81A4A5E
:1037F40052F8233000F4E0601843C0F30313062B9F
:1038040024D8164A52F8232000F00F00144B53F822
:103814002030E9B1C3F30F231361704700F0C002F5
:10382400C02A02D04FF0FF30E7E7D42B0BD800F0CA
:103834003F020C4B53F82220074B53F8223000F47C
:10384400E0601843D9E74FF0FF30D6E70022DBE70A
:10385400C3F30F2353617047D445000810000020C0
:10386400E04000088045000808B5054B1BB1054839
:1038740000F00EF800B908BDAFF30080FBE700BF0D
:1038840000000000A002002008B5FEF781FE08BD7C
:10389400B0F804319BB24033B0F80001181A00F0BC
:1038A4003F007047B0F804319BB2B0F80021934256
:1038B40003D0D0F8F830985C70474FF0FF30704771
:1038C40090F80231B0F80601C0B2834202D2C01AA5
:1038D40001387047C3F13F0318447047037C33B188
:1038E400B0F80221B0F806319BB29A42F8D1704781
:1038F40000B583B08DF8071003685B6801220DF1F1
:103904000701984703B05DF804FB0000B0F872307B
:103914009BB2426F134403F03F03A0F87230B0F837
:103924006E20B0F872309BB29A4201D100207047E9
:1039340000B583B002F14003B0F8722092B29B1A32
:103944005A4203F03F0302F03F0258BF5342009330
:10395400B0F8722092B2C2F14002019293420AD8A6
:103964006B461A6842670549FFF78CFD4FF0FF303C
:1039740003B05DF804FB01ABF3E700BF11390008A5
:1039840091421AD0C0F8E810C0F8E420C0F8EC3036
:10399400009BC0F8F03000F11103C0F8F8300023A8
:1039A400A0F80431A0F8003100F15102C0F8FC2065
:1039B400A0F80231A0F8063170474FF0FF31C0F88B
:1039C400E810E1E7CBB26F2B08D8104A52F8233045
:1039D40001F4E0611943C0F8E810704701F0C00237
:1039E400C02A02D04FF0FF31F5E7D42B0BD801F0F9
:1039F4003F02074B53F82220044B53F8223001F4C2
:103A0400E0611943E7E74FF0FF31E4E7D4450008EC
:103A140080450008CBB26F2B08D8104A52F82330E7
:103A240001F4E0611943C0F8E410704701F0C002EA
:103A3400C02A02D04FF0FF31F5E7D42B0BD801F0A8
:103A44003F02074B53F82220044B53F8223001F471
:103A5400E0611943E7E74FF0FF31E4E7D44500089C
:103A64008045000870B582B004461646264B0360B4
:103A740000234360254B03604FF47A738360244B27
:103A840003604FF0FF33C0F8E830224B984225D052
:103A94000D46214B9A682149214B53F82200FFF728
:103AA400DDFA854222D01F492846FFF7EBFAC4F815
:103AB400E8001A492846FFF7E5FAC4F8E400012EA5
:103AC4001DD04FF0FF330093D4F8E420D4F8E8106D
:103AD4002046FFF755FF204602B070BDC321FFF713
:103AE40071FFC2212046FFF795FFE8E7C321204676
:103AF400FFF768FFC2212046FFF78CFFDFE74FF096
:103B0400FF33C4F8E830DCE7C8470008E0470008A2
:103B14009C470008A00200208045000808450008D2
:103B2400D445000890440008012800D0704708B527
:103B34004FF6FF73994200D008BD002202490348A2
:103B4400FFF790FFF8E700BF00440040A002002008
:103B5400D0F8E800B0F1FF3F14BF00200120704707
:103B64002DE9F04182B004460F46904603689B68F5
:103B740098470190B4F80231C3F140030093012344
:103B840023742046FFF7E4FF10B194F80C313BB9DD
:103B940023689B68204698470028F9D046461EE0D3
:103BA400002384F80C3104F19400FFF789FCEFE75B
:103BB400019A934237D301AB1D6823685B682A4698
:103BC400394620469847761B2F4423689B68204635
:103BD40098470190B4F80231C3F140030093009B6D
:103BE400B342E5D3019AB242E2D3B4F802319A194E
:103BF400402A1AD8D4F8FC0032463946184400F05A
:103C0400F7F83546B4F802311E4406F03F06A4F82E
:103C1400026104F194063046FFF722FCA8B1404645
:103C240002B0BDE8F0816B46C6E7C3F14005D4F8A5
:103C3400FC002A463946184400F0DAF8721B791958
:103C4400D4F8FC0000F0D4F8DCE7C4F808512A46A4
:103C540002493046FFF716FCE1E700BF11390008BE
:103C640010B50446FFF774FF30B12368DB682046C3
:103C7400984794F80C3103B110BD012384F80C313A
:103C840004F19400FFF72EFCF6E710B50446FFF7A5
:103C9400E7FFB4F8042192B2B4F800319A4208D094
:103CA400D4F8F820D05C013303F03F03A4F80031CA
:103CB40010BD4FF0FF30FBE708B54FF6FF71012050
:103CC400FFF732FF08BD002070477047F8B505467E
:103CD4000C46002601E001363A46571E3AB12B68DD
:103CE4001B6814F8011B284698470028F3D1304676
:103CF400F8BD10B5044600F042F8E06023685B6943
:103D040020469847002808DA00F039F8E368C01A1A
:103D1400A3689842F2D34FF0FF3010BDF8B50746C0
:103D24000C461646002504E0214601F8010B013536
:103D34000C46B54204D23846FFF7DBFF0028F3DA1D
:103D44002846F8BD2DE9F04198469BB106460F463A
:103D54001446002504E0224602F8010B01351446FE
:103D6400454508D23046FFF7C4FF002803DB8742ED
:103D7400F1D100E01D462846BDE8F081FEE708B514
:103D8400FEF7B6FB08BD000070B500260C4D0D4CC7
:103D9400641BA410A64209D100F08AF900260A4D3A
:103DA4000A4C641BA410A64205D170BD55F8043B0F
:103DB40098470136EEE755F8043B98470136F2E799
:103DC400644800086448000864480008744800080F
:103DD400024B0146186800F089B800BF3C0000207F
:103DE400024B0146186800F019B800BF3C000020DF
:103DF4000A44914200F1FF3300D1704710B511F825
:103E0400014B914203F8014FF9D110BD034602441E
:103E1400934200D1704703F8011BF9E738B5054612
:103E2400002940D051F8043C0C1F002BB8BFE41803
:103E340000F0E2F81C4A136833B963601460284642
:103E4400BDE8384000F0DEB8A34208D92068211844
:103E54008B4201BF19685B6809182160EDE71A46B7
:103E64005B680BB1A342FAD911685018A0420BD178
:103E740020680144501883421160E0D118685B68DF
:103E8400014411605360DAE702D90C232B60D6E7B2
:103E9400206821188B4201BF19685B6809182160EA
:103EA40063605460CBE738BDB403002070B50E4E98
:103EB4000C463168054611B900F08CF83060214693
:103EC400284600F087F8431C0AD0C41C24F00304DD
:103ED400A04207D0211A284600F07CF8013001D115
:103EE4004FF0FF34204670BDB80300202DE9F041A7
:103EF400CD1C25F0030508350C2D38BF0C25002DED
:103F0400074601DBA94205D90C2300263B60304655
:103F1400BDE8F0812E4E00F06FF833681C4634BBC8
:103F240029463846FFF7C2FF431C04464DD1346886
:103F34002646002E40D123683146384604EB030858
:103F440000F048F880453AD1216803356D1A25F010
:103F5400030508350C2D38BF0C2538462946FFF7D4
:103F6400A5FF01302BD023682B4423600EE0226888
:103F7400521B1ED40B2A16D96119A342256018BFFF
:103F84005960636808BF316062514B60384604F180
:103F94000B0600F037F826F00706231DF21AB6D0F8
:103FA4009B1BA350B3E76268A3420CBF32605A6004
:103FB400ECE723466468B2E734467668B9E70C2335
:103FC40038463B6000F01EF8A1E72560DEE700BF3D
:103FD400B403002038B50023054D044608462B6081
:103FE400FFF720FB431C02D12B6803B1236038BDCB
:103FF400BC030020704770470148FFF7FBBF00BFB8
:10400400C00300200148FFF7F6BF00BFC003002033
:10401400062008B500F02CF80120FFF727FB1F2924
:1040240038B504460D4604D9162303604FF0FF301B
:1040340038BD426C12B152F821304BB9204600F021
:1040440031F82A4601462046BDE8384000F018B849
:10405400012B0AD0591C03D1162303600120E7E782
:104064000024284642F8254098470020E0E7000055
:10407400024B01461868FFF7D2BF00BF3C00002086
:1040840038B50023064D0446084611462B60FFF759
:10409400EFFA431C02D12B6803B1236038BD00BF83
:1040A400BC030020FFF7ECBA08B5FFF7B1FF00002E
:1040B400F8B500BFF8BC08BC9E467047F8B500BF11
:0840C400F8BC08BC9E467047E1
:1040CC0002030405060708090A0B0C0D0E0F10104D
:1040DC0000000000010100000202000004040000C6
:1040EC0008080000101000002020000040400000D4
:1040FC00808000000100010402000204040004049A
:10410C0008000804100010042000200440004004A3
:10411C008000800400000000000000000102030485
:10412C00060708090400000000740040038000002A
:10413C00050000000074004003000100FFFFFFFFBA
:10414C000000000000000000000000000000004023
:10415C0012800000000100000000004012900000DE
:10416C0000020000000C0040128000000100000062
:10417C00000000401212010001010000000000408C
:10418C001210010001020000000C0040120001009E
:10419C000200000000000040129201000201000029
:1041AC00000000401291010002020000000C0040CF
:1041BC0012800100030000000000004012120200F7
:1041CC000301000000000040121102000302000075
:1041DC00000C004012000200060000000004004029
:1041EC001295000007000000002C0140128D1000F9
:1041FC000701000000040040121501000702000036
:10420C00003401401280100008000000002C014016
:10421C00128E000008010000002C0140128D0000DD
:10422C0009000000002C0140120E010009010000E1
:10423C00002C0140120D01000A000000002C01406E
:10424C00128E01000A010000002C0140128D0100A9
:10425C000B000000002C0140120E02000B010000AC
:10426C00002C0140120D02000F0000000000004065
:10427C00129100000F01000000000040128F00009E
:10428C0010000000002C0140120D11001001000064
:10429C0000040040129501001002000000040040D0
:1042AC0012940100100300000034014012001100B0
:1042BC0011000000002C0140128D110011010000B2
:1042CC00000400401215020011020000000400401E
:1042DC00121402001103000000340140128011007E
:1042EC001300000000000040121101001301000037
:1042FC0000000040120F01001400000000040040F8
:10430C00129400001500000000040040121401007B
:10431C001600000000080040129700001700000073
:10432C0000080040121701001800000000080040AF
:10433C00129701001900000000080040121702003B
:10434C001A00000000000040129001001A01000049
:10435C0000000040128F01001B0000000000004014
:10436C00121002001B01000000000040120F02009E
:10437C001D000000002C0140128E10001E000000D9
:10438C00002C0140120E11001F000000002C0140F7
:10439C00128E110026000000000400401293000051
:1043AC0026010000003401401280000027000000AC
:1043BC0000040040121301002701000000340140EA
:1043CC0012000100280000000004004012930100BC
:1043DC002801000000340140128001002900000077
:1043EC0000040040121302002901000000340140B7
:1043FC00120002003C000000000800401296000071
:10440C003D00000000080040121601003E000000B4
:10441C0000080040129601003F0000000008004018
:10442C001216020048000000002C0140128C1000F3
:10443C0049000000002C0140128C00004A000000D2
:10444C00002C0140120C11004B000000002C01400C
:10445C00120C01004C000000002C0140128C1100C9
:10446C004D000000002C0140128C01004E00000099
:10447C00002C0140120C0200FFFFFFFF00000000A7
:10448C000000000003000000004400401008000081
:10449C000A00000000380140100600001700000060
:1044AC0000380140100500001B00000000480040CF
:1044BC00100000002B000000004C00401000000019
:1044CC002B01000000480040100A000032000000E0
:1044DC000050004010000000360000000044004076
:1044EC0010070000390000000048004010090000CF
:1044FC00FFFFFFFF000000000000000002000000B2
:10450C00004400401208000009000000003801407F
:10451C0012060000160000000038014012050000D1
:10452C001A00000000480040120000002A000000A1
:10453C00004C0040120000002A010000004800401E
:10454C00120A00002C000000005000401200000075
:10455C003500000000440040120700003800000045
:10456C000048004012090000FFFFFFFF00000000A0
:10457C00000000000000000001000000020000002C
:10458C00030000000400000005000000060000000D
:10459C0007000000100000001100000020000000C7
:1045AC002100000022000000230000002400000075
:1045BC0025000000560000005700000058000000C5
:1045CC00590000005A00000000000000010000002B
:1045DC0002000000030000000400000005000000C1
:1045EC0006000000070000000800000009000000A1
:1045FC000A0000000B0000000C0000000D00000081
:10460C000E0000000F000000100000001100000060
:10461C001200000013000000140000001500000040
:10462C001600000017000000180000001900000020
:10463C001A0000001B0000001C0000001D00000000
:10464C001E0000001F0000002000000021000000E0
:10465C0022000000230000002400000025000000C0
:10466C0026000000270000002800000029000000A0
:10467C002A0000002B0000002C0000002D00000080
:10468C002E0000002F000000300000003100000060
:10469C003200000033000000340000003500000040
:1046AC003600000037000000380000003900000020
:1046BC003A0000003B0000003C0000003D00000000
:1046CC003E0000003F0000004000000041000000E0
:1046DC0042000000430000004400000045000000C0
:1046EC0046000000470000004800000049000000A0
:1046FC004A0000004B0000004C0000004D00000080
:10470C004E0000004F00000050000000510000005F
:10471C00520000005300000054000000550000003F
:10472C00560000005700000058000000590000001F
:10473C005A0000005B0000005C0000005D000000FF
:10474C005E0000005F0000006000000061000000DF
:10475C0062000000630000006400000065000000BF
:10476C00660000006700000068000000690000009F
:10477C006A0000006B0000006C0000006D0000007F
:10478C006E0000006F000000000000000000000040
:10479C00F5380008653B0008C5380008E13800080A
:1047AC00953800088F3C0008A9380008213D000806
:1047BC00493D00080000000000000000813D000899
:1047CC00D13C0008CB3C0008CF3C000800000000A6
:1047DC0000000000813D0008D13C0008CB3C0008E3
:1047EC00CF3C0008813D0008813D0008813D000858
:1047FC00213D0008493D00080000000000000000B9
:10480C00000000000000000000000000000000009C
:10481C00000000000000000000000000000000008C
:10482C00000000000000000000000000000000007C
:10483C00000000000000000000000000000000006C
:10484C00000000000000000000000000000000005C
:08485C00000000000000000054
:10486400893600080902000811270008BD3C000829
:08487400E50100081F27000800
:10487C000600F0004001FFFF0100000010000000E6
:10488C0000080140000C01400010014000140140E0
:10489C0000180140001C0140002001400030024083
:1048AC00000000000024F400C80300204000002099
:1048BC000000000024480008444800080448000890
:1048CC0000000000000000000000000000000000DC
:1048DC0000000000000000000000000000000000CC
:1048EC0000000000000000000000000000000000BC
:1048FC0000000000000000000000000000000000AC
:10490C00000000000000000000000000000000009B
:04000005080036AD0C
:00000001FF
